:100000000C945D000C9485000C9485000C94850084
:100010000C9485000C9485000C9485000C9485004C
:100020000C9485000C9485000C9485000C943D0480
:100030000C9485000C9485000C9485000C9485002C
:100040000C949B030C9485000C940B040C94E50316
:100050000C9485000C9485000C9485000C9485000C
:100060000C9485000C9485000000000024002700FB
:100070002A0000000000250028002B0004040404CE
:100080000404040402020202020203030303030342
:10009000010204081020408001020408102001021F
:1000A00004081020000000080002010000030407FB
:1000B0000000000000000000F90411241FBECFEF73
:1000C000D8E0DEBFCDBF11E0A0E0B1E0E0E1F5E1B6
:1000D00002C005900D92AC34B107D9F722E0ACE430
:1000E000B1E001C01D92AF31B207E1F710E0CDE5FC
:1000F000D0E004C02197FE010E947708CC35D107DB
:10010000C9F70E9456050C94860A0C940000CF9201
:10011000DF92EF92FF92DC01A03282E0B807D4F5C3
:10012000A53BB10514F0A4EBB0E04091190228E81A
:1001300030E0241B310947FD3395220F331F220F76
:10014000331F6901330FEE08FF0840911A0228E5BA
:1001500032E0241B310947FD3395220F331F220F54
:10016000331F032E000C440B550B2C193D094E096F
:100170005F09B7FF02C0B0E0A0E00E94FB0724EBDC
:1001800030E040E050E00E94D107C20ED31EE41ED2
:10019000F51ED601E0911802EC3080F5209119028D
:1001A00088E890E0821B910927FD9395880F991F9D
:1001B000880F991FA817B90784F020911A0288E5C3
:1001C00092E0821B910927FD9395880F991F880F54
:1001D000991FA817B9070CF4CD010297880F991F32
:1001E0004FB7F8942E2F30E0F901EE0FFF1FE20F0A
:1001F000F31FED50FE4F928381834FBFFF90EF902E
:10020000DF90CF90089590E0FC01EC55FF4F2491D2
:10021000FC01E057FF4F3491FC01E458FF4FE4919B
:10022000EE23C9F0222339F0233001F1A8F4213064
:1002300019F1223029F1F0E0EE0FFF1FEE58FF4FC9
:10024000A591B4918FB7F894EC91611126C03095C7
:100250003E233C938FBF08952730A9F02830C9F082
:10026000243049F7809180008F7D03C08091800009
:100270008F7780938000DFCF84B58F7784BDDBCF0D
:1002800084B58F7DFBCF8091B0008F778093B000D5
:10029000D2CF8091B0008F7DF9CF3E2BDACFAF92D5
:1002A000BF92CF92DF92EF92FF920F931F93CF9363
:1002B000DF936C017B018B01040F151FEB015E01C5
:1002C000AE18BF08C017D10759F06991D601ED915A
:1002D000FC910190F081E02DC6010995892B79F7F9
:1002E000C501DF91CF911F910F91FF90EF90DF90AB
:1002F000CF90BF90AF900895FC01538D448D252F72
:1003000030E0842F90E0821B930B541710F0CF96AF
:10031000089501970895FC01918D828D981761F0E1
:10032000A28DAE0FBF2FB11D5D968C91928D9F5FF8
:100330009F73928F90E008958FEF9FEF08952FB7EE
:10034000F8948091520190915301A0915401B09181
:1003500055012FBF80935E0190935F01A0936001D0
:10036000B093610186E591E00E948B0197FF26C062
:100370002FB7F8948091520190915301A0915401AC
:10038000B09155012FBF40915E0150915F01609186
:10039000600170916101841B950BA60BB70B409116
:1003A0005A0150915B0160915C0170915D0184176D
:1003B0009507A607B707B0F28FEF9FEF0895FC01EE
:1003C000918D828D981731F0828DE80FF11D858D0A
:1003D00090E008958FEF9FEF0895FC01918D228D9D
:1003E000892F90E0805C9F4F821B91098F73992722
:1003F000089586E591E00E94ED0121E0892B09F442
:1004000020E0822F089580E090E0892B29F00E945F
:10041000F90181110C9400000895FC01A48DA80F2E
:10042000B92FB11DA35ABF4F2C91848D90E0019636
:100430008F739927848FA689B7892C93A089B18956
:100440008C91837080648C93938D848D981306C0F7
:100450000288F389E02D80818F7D80830895EF925B
:10046000FF920F931F93CF93DF93EC0181E0888F6E
:100470009B8D8C8D98131AC0E889F989808185FF3E
:1004800015C09FB7F894EE89FF896083E889F989E0
:1004900080818370806480839FBF81E090E0DF91E2
:1004A000CF911F910F91FF90EF900895F62E0B8D35
:1004B00010E00F5F1F4F0F731127E02E8C8D8E11F0
:1004C0000CC00FB607FCFACFE889F989808185FF57
:1004D000F5CFCE010E940D02F1CFEB8DEC0FFD2F79
:1004E000F11DE35AFF4FF0829FB7F8940B8FEA8912
:1004F000FB8980818062CFCFCF93DF93EC01888D21
:100500008823B9F0AA89BB89E889F9898C9185FD8E
:1005100003C0808186FD0DC00FB607FCF7CF8C911C
:1005200085FFF2CF808185FFEDCFCE010E940D02C5
:10053000E9CFDF91CF910895FC0101900020E9F708
:100540003197AF01481B590BBC0186E591E00C9433
:100550004F018F929F92AF92BF92CF92DF92EF9214
:10056000FF920F931F93CF93DF93CDB7DEB7A19781
:100570000FB6F894DEBF0FBECDBF6C01990FEE0829
:10058000FF08F7FE47C06DE286E591E00E942F026A
:100590008C0122273327A9012C193D094E095F0937
:1005A00019A2CE0181967C019AE0892E912CA12C72
:1005B000B12CCA01B901A50194010E943A08605DFD
:1005C000F70162937F01211531054105510589F736
:1005D00090E080E0309719F0CF010E949C02080F54
:1005E000191F8AE191E00E949C02800F911FA19641
:1005F0000FB6F894DEBF0FBECDBFDF91CF911F9134
:100600000F91FF90EF90DF90CF90BF90AF909F90B1
:100610008F900895A701960119A28E010F5D1F4FBB
:100620008AE0C82ED12CE12CF12CCA01B901A70116
:1006300096010E943A08605DF80162938F012115CE
:1006400031054105510589F7309729F0CF010E9406
:100650009C028C01C6CF10E000E0C3CF0F931F9324
:10066000CF93DF93EC0188819981009759F02A811B
:100670003B812617370730F081E0DF91CF911F9142
:100680000F9108958B016F5F7F4F0E94A209009721
:1006900059F0998388831B830A832C813D81232B06
:1006A00059F7FC011082E8CF80E0E7CFCF93DF93CA
:1006B000EC0188819981009711F00E941909198233
:1006C00018821D821C821B821A82DF91CF910895AD
:1006D000EF92FF920F931F93CF93DF938C017B01D7
:1006E000EB0109900020E9F72197C61BD70BBE014B
:1006F0000E942E03811109C0C801DF91CF911F9183
:100700000F91FF90EF900C945603F801D583C483AA
:10071000B70180819181DF91CF911F910F91FF905F
:10072000EF900C94710AFC0180819181009711F087
:100730000C94190908951F920F920FB60F9211246D
:100740002F933F938F939F93AF93BF9380915201C9
:1007500090915301A0915401B091550130915101F4
:1007600023E0230F2D3758F50196A11DB11D2093CD
:1007700051018093520190935301A0935401B0937F
:10078000550180914D0190914E01A0914F01B09182
:1007900050010196A11DB11D80934D0190934E0112
:1007A000A0934F01B0935001BF91AF919F918F9152
:1007B0003F912F910F900FBE0F901F90189526E834
:1007C000230F0296A11DB11DD2CF1F920F920FB61B
:1007D0000F9211242F933F934F935F936F937F93C7
:1007E0008F939F93AF93BF93EF93FF9386E591E031
:1007F0000E940D02FF91EF91BF91AF919F918F9158
:100800007F916F915F914F913F912F910F900FBE0C
:100810000F901F9018951F920F920FB60F921124F0
:100820002F938F939F93EF93FF93E0916601F09145
:1008300067018081E0916C01F0916D0182FD1BC028
:10084000908180916F018F5F8F732091700182176B
:1008500041F0E0916F01F0E0EA5AFE4F958F8093EE
:100860006F01FF91EF919F918F912F910F900FBE8C
:100870000F901F9018958081F4CF1F920F920FB6A2
:100880000F9211242F933F934F935F936F937F9316
:100890008F939F93AF93BF93CF93DF93EF93FF9388
:1008A00080914C01C0911702D0E087FF24C01092C4
:1008B00085001092840080914C018F5F80934C01E1
:1008C00080914C01082E000C990B8C179D0724F485
:1008D00080914C018C30C4F180918400909185000E
:1008E000049680349C4908F47AC0809184009091E9
:1008F0008500049676C080914C01082E000C990B5F
:100900008C179D07C4F6E0914C018E2FEE0F990BCA
:10091000FC01EE0FFF1FE80FF91FED50FE4F808125
:1009200086FFC9CFE0914C018E2FEE0F990BFC0191
:10093000EE0FFF1FE80FF91FED50FE4F808160E0C2
:100940008F730E940301B7CF2091840030918500FE
:10095000E0914C018E2FEE0F990BFC01EE0FFF1F63
:10096000E80FF91FED50FE4F81819281820F931F96
:100970009093890080938800E0914C018E2FEE0FB8
:10098000990BFC01EE0FFF1FE80FF91FED50FE4F12
:10099000808186FF11C0E0914C018E2FEE0F990BE4
:1009A000FC01EE0FFF1FE80FF91FED50FE4F808195
:1009B00061E08F730E940301FF91EF91DF91CF916E
:1009C000BF91AF919F918F917F916F915F914F9167
:1009D0003F912F910F900FBE0F901F90189580E4BC
:1009E0009CE990938900809388008FEF80934C015D
:1009F000E3CF109259011092580188EE93E0A0E0E5
:100A0000B0E080935A0190935B01A0935C01B09396
:100A10005D018CE091E0909357018093560185EC45
:100A200090E0909363018093620184EC90E0909356
:100A300065018093640180EC90E09093670180935E
:100A4000660181EC90E0909369018093680182ECEB
:100A500090E090936B0180936A0186EC90E0909314
:100A60006D0180936C0110926F01109270011092D1
:100A7000710110927201809117028C3098F491E00C
:100A8000980F909317028093180290E0FC01EE0FEC
:100A9000FF1FE80FF91FED50FE4F88EB9BE092839C
:100AA000818308958FEF809318020895CF93DF9389
:100AB000CDB7DEB72C970FB6F894DEBF0FBECDBF13
:100AC000789484B5826084BD84B5816084BD85B529
:100AD000826085BD85B5816085BD80916E00816035
:100AE00080936E00109281008091810082608093DB
:100AF00081008091810081608093810080918000DD
:100B00008160809380008091B10084608093B10007
:100B10008091B00081608093B00080917A00846001
:100B200080937A0080917A00826080937A0080912D
:100B30007A00816080937A0080917A008068809347
:100B40007A001092C100E0916601F091670182E0A5
:100B50008083E0916201F09163011082E091640171
:100B6000F09165018FEC808310926E01E0916A0133
:100B7000F0916B0186E08083E0916801F09169015A
:100B8000808180618083E0916801F09169018081BA
:100B900088608083E0916801F091690180818068BC
:100BA0008083E0916801F091690180818F7D80836D
:100BB000809118028C3008F068C0E9E9F0E02491D7
:100BC000E5E8F0E08491882399F090E0880F991F80
:100BD000FC01E859FF4FA591B491FC01EE58FF4F7D
:100BE000859194918FB7F894EC91E22BEC938FBFA1
:100BF00080911802282F30E0F901EE0FFF1FE20F5D
:100C0000F31FED50FE4F9081907C9960908310927D
:100C1000190210921A022CE0622F0E946B08829F28
:100C2000B001112430E020E0AB01420F531FFA0164
:100C3000EE0FFF1FE40FF51FED50FE4F908196FD64
:100C400016C02F5F3F4F2C30310571F781110FC057
:100C50001092800082E080938100109285001092B3
:100C60008400B19A80916F00826080936F00E09160
:100C700018028E2F90E0FC01EE0FFF1FE80FF91F06
:100C8000ED50FE4F808180648083809100019091BF
:100C900001010E94870090E0A92E90E0B92E86E520
:100CA00091E00E94ED01892B09F41AC118861F8278
:100CB0001A8619861C861B866CE171E0CE010796A8
:100CC0000E9468030E949F0197FD1EC08A30910513
:100CD000D9F089831A820B851C850F5F1F4FB801DD
:100CE000CE0107960E942E03882361F32F81388559
:100CF0008B859C85BE016F5F7F4F820F931F0E9483
:100D0000710A1C870B87DECFCF80D884C114D10431
:100D100039F00B851C8576010115110509F096C087
:100D20001A8219821C821B821E821D826DE171E073
:100D3000CE0101960E9468034D815E818B859C8562
:100D40008417950778F08F819885009759F069810D
:100D50007A816115710531F00E94780AFF24F394BD
:100D6000892B09F0F12CCE0101960E9493030B858B
:100D70001C85FF2009F4C0C086E0C82ED12C0630A7
:100D8000110518F4680106E010E01A8219821C822D
:100D90001B821E821D826CE171E0CE0101960E94D1
:100DA0006803EB84FC84CE14DF0450F50E151F0598
:100DB00008F47801EF81F885EE0DFF1D9080108218
:100DC0000F8118850C0D1D1D0115110579F0F80115
:100DD00001900020E9F731976F01C01AD10AB601DE
:100DE000CE0101960E942E03811166C0CE010196AC
:100DF0000E9456038F819885E80EF91EF7019082B4
:100E000089819A81C12CD12C7601009719F00E941A
:100E100089076B01CE0101960E949303F5EBCF1673
:100E2000D10408F051C0D0920101C0920001C60166
:100E30000E94870084E291E00E949C028091000160
:100E4000909101010E94A90247C0740147018FEFF0
:100E5000881A980AF7018081082E000C990B0E94CD
:100E6000C507892B91F7015011090C0D1D1DF801C3
:100E70008081082E000C990B0E94C507892B31F048
:100E80000E151F0518F001501109F1CFA8014F5F91
:100E90005F4F4E195F095C874B87CE14DF0420F447
:100EA000B701C6010E945F0AEF81F8858B859C859A
:100EB000E80FF91F108234CFDE82CD82B80189811C
:100EC0009A810E94710A96CF89E291E00E949C0269
:100ED0008AE191E00E949C02CE0107960E94930352
:100EE000A114B10409F4DBCE0E94F901882309F4AE
:100EF000D6CE0E940000D3CE012B71F36CE371E0DB
:100F00008F8198850E94680A892B31F783E491E0EC
:100F100093CF1F93FC0199278827BC01E894119176
:100F20001032E9F3193010F01E30C8F31B3251F0C3
:100F30001D3249F4689406C00E94B007610F711D0C
:100F4000811D911D119110531A30B0F33EF490950C
:100F50008095709561957F4F8F4F9F4F1F9108959A
:100F6000592F482F372F262F660F771F881F991F5D
:100F7000660F771F881F991F620F731F841F951FAD
:100F8000660F771F881F991F089591110C94CE0743
:100F9000803219F089508550C8F70895992788271D
:100FA0000895052E97FB1EF400940E94E80757FD54
:100FB00007D00E943A0807FC03D04EF40C94E807CF
:100FC00050954095309521953F4F4F4F5F4F089575
:100FD00090958095709561957F4F8F4F9F4F0895A5
:100FE0000E945C08A59F900DB49F900DA49F800D5A
:100FF000911D11240895B7FF0C94F0070E94F0078B
:10100000821B930B08952F923F924F925F926F92A3
:101010007F928F929F92AF92BF92CF92DF92EF9288
:10102000FF920F931F93CF93DF93CDB7DEB7CA1B09
:10103000DB0B0FB6F894DEBF0FBECDBF09942A8834
:10104000398848885F846E847D848C849B84AA84DC
:10105000B984C884DF80EE80FD800C811B81AA8169
:10106000B981CE0FD11D0FB6F894DEBF0FBECDBF34
:10107000ED010895A1E21A2EAA1BBB1BFD010DC0B4
:10108000AA1FBB1FEE1FFF1FA217B307E407F50738
:1010900020F0A21BB30BE40BF50B661F771F881F14
:1010A000991F1A9469F760957095809590959B01AA
:1010B000AC01BD01CF010895A29FB001B39FC00153
:1010C000A39F700D811D1124911DB29F700D811D74
:1010D0001124911D0895991B79E004C0991F96175A
:1010E00008F0961B881F7A95C9F780950895EE0F32
:1010F000FF1F0590F491E02D09940F931F93CF9358
:10110000DF938230910510F482E090E0E0911D02BF
:10111000F0911E0230E020E0B0E0A0E0309799F4BA
:101120002115310509F44AC0281B390B243031053B
:10113000D8F58A819B816115710589F1FB01938343
:101140008283FE0111C040815181028113814817C1
:101150005907E0F04817590799F4109761F0129673
:101160000C93129713961C933296CF01DF91CF9177
:101170001F910F91089500931D0210931E02F4CF4A
:101180002115310551F04217530738F0A901DB0151
:101190009A01BD01DF01F801C1CFEF01F9CF9093B2
:1011A0001E0280931D02CDCFFE01E20FF31F81933B
:1011B00091932250310939832883D7CF20911B0284
:1011C00030911C02232B41F4209104013091050140
:1011D00030931C0220931B022091020130910301E5
:1011E0002115310541F42DB73EB7409106015091CC
:1011F0000701241B350BE0911B02F0911C02E21742
:10120000F307A0F42E1B3F0B2817390778F0AC0129
:101210004E5F5F4F2417350748F04E0F5F1F509306
:101220001C0240931B02819391939FCFF0E0E0E07A
:101230009CCFCF93DF930097E9F0FC0132971382A4
:101240001282A0911D02B0911E02ED0130E020E05B
:101250001097A1F420813181820F931F20911B02EE
:1012600030911C022817390709F061C0F0931C0265
:10127000E0931B02DF91CF910895EA01CE17DF07BB
:10128000E8F54A815B819E0141155105B1F7E901FD
:10129000FB83EA8349915991C40FD51FEC17FD07D1
:1012A00061F4808191810296840F951FE9019983F1
:1012B0008883828193819B838A83F0E0E0E01296A9
:1012C0008D919C9113970097B9F52D913C911197B1
:1012D000CD010296820F931F20911B0230911C02B8
:1012E0002817390739F6309751F510921E021092DF
:1012F0001D02B0931C02A0931B02BCCFD383C283F8
:1013000040815181840F951FC817D90761F44E5F42
:101310005F4F88819981480F591F518340838A818B
:101320009B81938382832115310509F0B0CFF0931F
:101330001E02E0931D029ECFFD01DC01C0CF13828F
:101340001282D7CFB0E0A0E0E8EAF9E00C940508FB
:101350008C01009751F4CB010E947D088C01C801DB
:10136000CDB7DEB7E0E10C942108FC01E60FF71FD2
:101370009C0122503109E217F30708F49DC0D901FE
:10138000CD91DC911197C617D70798F0C530D105DC
:1013900030F3CE0104978617970708F3C61BD70BC7
:1013A0002297C193D1936D937C93CF010E94190929
:1013B000D6CF5B01AC1ABD0A4C018C0E9D1EA091CC
:1013C0001D02B0911E02512C412CF12CE12C1097E2
:1013D00031F580911B0290911C028815990509F046
:1013E0005CC04616570608F058C0809102019091E3
:1013F0000301009741F48DB79EB7409106015091CB
:101400000701841B950BE817F90708F055C0F09306
:101410001C02E0931B02F90171836083A0CF8D91C0
:101420009C91119712966C90129713967C9013973B
:10143000A815B90559F56C0142E0C40ED11CCA14B7
:10144000DB0420F1AC014A195B09DA011296159709
:1014500080F06282738251834083D9016D937C93C3
:10146000E114F10471F0D7011396FC93EE931297F7
:1014700076CF22968C0F9D1FF90191838083F30113
:10148000EFCFF0931E02E0931D0269CF4816590674
:1014900008F42C017D01D3019ACFCB010E947D0875
:1014A0007C01009749F0AE01B8010E945F0AC801B3
:1014B0000E941909870153CF10E000E050CFFB01D3
:1014C000DC0102C001900D9241505040D8F70895C0
:1014D000FB01DC018D91019080190110D9F3990B6A
:1014E0000895FB01DC0101900D920020E1F70895C1
:1014F000FB01DC014150504030F08D91019080198A
:1015000019F40020B9F7881B990B0895F894FFCFC0
:101510005A0000001F028000000000002F024F014F
:101520007C017C02ED018B01DF010D0A00414E4779
:101530004C4520004F4B3A20004552524F523A2022
:10154000416E676C6520302D313830005354415462
:0C155000555300414E474C453A20000026
:00000001FF
