:100000000C9462000C948A000C948A000C948A0070
:100010000C948A000C948A000C948A000C948A0038
:100020000C948A000C948A000C948A000C948A0028
:100030000C948A000C948A000C948A000C948A0018
:100040000C9472020C948A000C94E2020C94BC0290
:100050000C948A000C948A000C948A000C948A00F8
:100060000C948A000C948A000000000024002700F1
:100070002A000000000023002600290000000000E4
:10008000250028002B0004040404040404040202D4
:100090000202020203030303030301020408102007
:1000A0004080010204081020010204081020000012
:1000B0000008000201000003040700000000000027
:1000C0000000A40411241FBECFEFD8E0DEBFCDBFD7
:1000D00021E0AAE3B1E001C01D92A43EB207E1F71E
:1000E00011E0A0E0B1E0EEE2FEE002C005900D926A
:1000F000AA33B107D9F710E0C2E6D0E004C02197D7
:10010000FE010E941405C136D107C9F70E941403ED
:100110000C9415070C940000833081F028F4813092
:1001200099F08230A9F008958730A9F08830C9F09D
:100130008430B1F4809180008F7D03C08091800075
:100140008F7780938000089584B58F7784BD08955C
:1001500084B58F7DFBCF8091B0008F778093B00006
:1001600008958091B0008F7DF9CF1F93CF93DF93D7
:10017000EBEBF0E09491E7EAF0E0D491E3E9F0E012
:10018000C491CC23B9F0182F992319F0892F0E941C
:100190008C00EC2FF0E0EE0FFF1FE458FF4FA5910D
:1001A000B4918FB7F894EC91111108C0D095DE236B
:1001B000DC938FBFDF91CF911F910895DE2BF8CF95
:1001C000AF92BF92CF92DF92EF92FF920F931F9365
:1001D000CF93DF936C017B018B01040F151FEB01A3
:1001E0005E01AE18BF08C017D10759F06991D6015A
:1001F000ED91FC910190F081E02DC6010995892BCC
:1002000079F7C501DF91CF911F910F91FF90EF908A
:10021000DF90CF90BF90AF900895FC01538D448D37
:10022000252F30E0842F90E0821B930B541710F0A1
:10023000CF96089501970895FC01918D828D9817AE
:1002400061F0A28DAE0FBF2FB11D5D968C91928D86
:100250009F5F9F73928F90E008958FEF9FEF0895B7
:100260002FB7F89480913F0190914001A0914101F6
:10027000B09142012FBF80934B0190934C01A0930A
:100280004D01B0934E0183E491E00E941C0197FF61
:1002900026C02FB7F89480913F0190914001A09122
:1002A0004101B09142012FBF40914B0150914C014F
:1002B00060914D0170914E01841B950BA60BB70BFD
:1002C00040914701509148016091490170914A0164
:1002D00084179507A607B707B0F28FEF9FEF089531
:1002E000FC01918D828D981731F0828DE80FF11D00
:1002F000858D90E008958FEF9FEF0895FC01918D1B
:10030000228D892F90E0805C9F4F821B91098F7313
:100310009927089583E491E00E947E0121E0892BD2
:1003200009F420E0822F089580E090E0892B29F0E5
:100330000E948A0181110C9400000895FC01A48D93
:10034000A80FB92FB11DA35ABF4F2C91848D90E0F7
:1003500001968F739927848FA689B7892C93A089DA
:10036000B1898C91837080648C93938D848D981364
:1003700006C00288F389E02D80818F7D80830895F7
:10038000EF92FF920F931F93CF93DF93EC0181E0E5
:10039000888F9B8D8C8D98131AC0E889F98980818C
:1003A00085FF15C09FB7F894EE89FF896083E889BF
:1003B000F98980818370806480839FBF81E090E0B1
:1003C000DF91CF911F910F91FF90EF900895F62E3E
:1003D0000B8D10E00F5F1F4F0F731127E02E8C8DD8
:1003E0008E110CC00FB607FCFACFE889F98980811D
:1003F00085FFF5CFCE010E949E01F1CFEB8DEC0F72
:10040000FD2FF11DE35AFF4FF0829FB7F8940B8F39
:10041000EA89FB8980818062CFCFCF93DF93EC01A3
:10042000888D8823B9F0AA89BB89E889F9898C91DC
:1004300085FD03C0808186FD0DC00FB607FCF7CF98
:100440008C9185FFF2CF808185FFEDCFCE010E9498
:100450009E01E9CFDF91CF910895CF93DF93FC0107
:1004600001900020E9F73197AF01481B590BBC01FF
:1004700083E491E00E94E000EC0142E050E068E19A
:1004800071E083E491E00E94E0008C0F9D1FDF91FA
:10049000CF9108950F931F93CF93DF93EC01888141
:1004A0009981009759F02A813B812617370730F050
:1004B00081E0DF91CF911F910F9108958B016F5FC4
:1004C0007F4F0E943F06009759F0998388831B83D2
:1004D0000A832C813D81232B59F7FC011082E8CF40
:1004E00080E0E7CF1F920F920FB60F9211242F9347
:1004F0003F938F939F93AF93BF9380913F019091D0
:100500004001A0914101B091420130913E0123E0B0
:10051000230F2D3758F50196A11DB11D20933E01E3
:1005200080933F0190934001A0934101B093420119
:1005300080913A0190913B01A0913C01B0913D0125
:100540000196A11DB11D80933A0190933B01A093A8
:100550003C01B0933D01BF91AF919F918F913F912D
:100560002F910F900FBE0F901F90189526E8230F24
:100570000296A11DB11DD2CF1F920F920FB60F92FE
:1005800011242F933F934F935F936F937F938F9398
:100590009F93AF93BF93EF93FF9383E491E00E9407
:1005A0009E01FF91EF91BF91AF919F918F917F91AC
:1005B0006F915F914F913F912F910F900FBE0F90D0
:1005C0001F9018951F920F920FB60F9211242F9320
:1005D0008F939F93EF93FF93E0915301F091540118
:1005E0008081E0915901F0915A0182FD1BC09081F8
:1005F00080915C018F5F8F7320915D01821741F0C4
:10060000E0915C01F0E0ED5BFE4F958F80935C0123
:10061000FF91EF919F918F912F910F900FBE0F90AF
:100620001F9018958081F4CFCF93DF93CDB7DEB7BD
:1006300028970FB6F894DEBF0FBECDBF789484B56F
:10064000826084BD84B5816084BD85B5826085BDCE
:1006500085B5816085BD80916E00816080936E005C
:10066000109281008091810082608093810080914E
:1006700081008160809381008091800081608093FF
:1006800080008091B10084608093B1008091B000BF
:1006900081608093B00080917A00846080937A00BA
:1006A00080917A00826080937A0080917A008160E4
:1006B00080937A0080917A00806880937A0010920B
:1006C000C100E0915301F091540182E08083E091F8
:1006D0004F01F09150011082E0915101F0915201CF
:1006E0008FEC808310925B01E0915701F0915801EB
:1006F00086E08083E0915501F09156018081806110
:100700008083E0915501F09156018081886080835B
:10071000E0915501F0915601808180688083E091DD
:100720005501F091560180818F7D808347EA442EE8
:1007300040E0542EF201249153E9652E50E0752ECD
:10074000F3018491882399F090E0880F991FFC01B0
:10075000E859FF4FA591B491FC01E458FF4F8591F2
:1007600094918FB7F8949C91292B2C938FBF9BEB7E
:10077000292E90E0392E20E0A22E20E0B22E83E434
:1007800091E00E947E01892B09F46AC01A821982C5
:100790001C821B821E821D8270E060E0CE010196E9
:1007A0000E944A0229813A8181112EC0211531050A
:1007B00019F0C9010E94B6051A8219821E821D8293
:1007C0001C821B820E9430010D811E8197FD24C076
:1007D0008A30910509F18F8318860F5F1F4FB8018A
:1007E000CE0101960E944A02882361F329813A8151
:1007F0008D819E81BE01695F7F4F820F931F0E9492
:100800000E071E830D83DECF1E821D826AE171E01A
:10081000C9010E940E07D6CFC980DA80C114D10465
:1008200021F076010115110541F58D819E81892BFD
:1008300089F009811A8163E271E0C8010E9405070D
:10084000892B09F050C081E00E94B5008BE191E056
:100850000E942D0289819A81009711F00E94B605AD
:10086000A114B10409F48BCF0E948A01882309F4F2
:1008700086CF0E94000083CF74014701FFEF8F1ADB
:100880009F0AF7018081082E000C990B0E94D10469
:10089000892B91F7015011090C0D1D1DF801808164
:1008A000082E000C990B0E94D104892B31F00E15F3
:1008B0001F0518F001501109F1CF0F5F1F4FA8015C
:1008C0004E195F095E834D83CE14DF0420F4B70117
:1008D000C6010E94FC06E981FA818D819E81E80FA4
:1008E000F91F1082A2CF6EE271E0C8010E940507D5
:1008F000892B31F480E00E94B50086E291E0A8CF18
:1009000062E371E0C8010E940507892B09F0A2CFBC
:10091000F1018491F2011491F3010491002389F013
:1009200081110E948C00E02FF0E0EE0FFF1FEE58C7
:10093000FF4FA591B4918C91182383E291E009F0C7
:1009400087CF8EE291E084CFE3E4F1E0138212825C
:1009500088EE93E0A0E0B0E084839583A683B7831C
:100960008AE091E09183808385EC90E0958784878D
:1009700084EC90E09787868780EC90E0918B808B69
:1009800081EC90E0938B828B82EC90E0958B848B52
:1009900086EC90E0978B868B118E128E138E148EC0
:1009A000089591110C94DA04803219F08950855021
:1009B000C8F708959927882708952F923F924F925C
:1009C0005F926F927F928F929F92AF92BF92CF92DF
:1009D000DF92EF92FF920F931F93CF93DF93CDB7E8
:1009E000DEB7CA1BDB0B0FB6F894DEBF0FBECDBF60
:1009F00009942A88398848885F846E847D848C8431
:100A00009B84AA84B984C884DF80EE80FD800C8139
:100A10001B81AA81B981CE0FD11D0FB6F894DEBF1C
:100A20000FBECDBFED010895EE0FFF1F0590F491AD
:100A3000E02D09940F931F93CF93DF93823091059C
:100A400010F482E090E0E091E201F091E30130E007
:100A500020E0B0E0A0E0309799F42115310509F4C9
:100A60004AC0281B390B24303105D8F58A819B8177
:100A70006115710589F1FB0193838283FE0111C029
:100A8000408151810281138148175907E0F04817CE
:100A9000590799F4109761F012960C9312971396D8
:100AA0001C933296CF01DF91CF911F910F91089542
:100AB0000093E2011093E301F4CF2115310551F0C9
:100AC0004217530738F0A901DB019A01BD01DF018C
:100AD000F801C1CFEF01F9CF9093E3018093E201D8
:100AE000CDCFFE01E20FF31F819391932250310984
:100AF00039832883D7CF2091E0013091E101232B66
:100B000041F420910201309103013093E1012093DF
:100B1000E00120910001309101012115310541F4DE
:100B20002DB73EB74091040150910501241B350BB0
:100B3000E091E001F091E101E217F307A0F42E1B30
:100B40003F0B2817390778F0AC014E5F5F4F241731
:100B5000350748F04E0F5F1F5093E1014093E001CD
:100B6000819391939FCFF0E0E0E09CCFCF93DF9310
:100B70000097E9F0FC01329713821282A091E20102
:100B8000B091E301ED0130E020E01097A1F4208165
:100B90003181820F931F2091E0013091E1012817EC
:100BA000390709F061C0F093E101E093E001DF91C2
:100BB000CF910895EA01CE17DF07E8F54A815B81FE
:100BC0009E0141155105B1F7E901FB83EA83499183
:100BD0005991C40FD51FEC17FD0761F480819181F5
:100BE0000296840F951FE9019983888382819381FE
:100BF0009B838A83F0E0E0E012968D919C9113979D
:100C00000097B9F52D913C911197CD010296820F75
:100C1000931F2091E0013091E1012817390739F63F
:100C2000309751F51092E3011092E201B093E10187
:100C3000A093E001BCCFD383C28340815181840F54
:100C4000951FC817D90761F44E5F5F4F888199815E
:100C5000480F591F518340838A819B8193838283EC
:100C60002115310509F0B0CFF093E301E093E201E3
:100C70009ECFFD01DC01C0CF13821282D7CFB0E03E
:100C8000A0E0E5E4F6E00C94DF048C01009751F459
:100C9000CB010E941A058C01C801CDB7DEB7E0E197
:100CA0000C94FB04FC01E60FF71F9C012250310954
:100CB000E217F30708F49DC0D901CD91DC9111979B
:100CC000C617D70798F0C530D10530F3CE01049789
:100CD0008617970708F3C61BD70B2297C193D193AA
:100CE0006D937C93CF010E94B605D6CF5B01AC1A01
:100CF000BD0A4C018C0E9D1EA091E201B091E30152
:100D0000512C412CF12CE12C109731F58091E00110
:100D10009091E1018815990509F05CC046165706C7
:100D200008F058C08091000190910101009741F4B2
:100D30008DB79EB74091040150910501841B950B1E
:100D4000E817F90708F055C0F093E101E093E001DE
:100D5000F90171836083A0CF8D919C9111971296B8
:100D60006C90129713967C901397A815B90559F5B6
:100D70006C0142E0C40ED11CCA14DB0420F1AC01AA
:100D80004A195B09DA011296159780F06282738224
:100D900051834083D9016D937C93E114F10471F088
:100DA000D7011396FC93EE93129776CF22968C0F71
:100DB0009D1FF90191838083F301EFCFF093E3014D
:100DC000E093E20169CF4816590608F42C017D0131
:100DD000D3019ACFCB010E941A057C01009749F0FC
:100DE000AE01B8010E94FC06C8010E94B605870149
:100DF00053CF10E000E050CFFB01DC0102C00190B6
:100E00000D9241505040D8F70895FB01DC018D91BF
:100E1000019080190110D9F3990B0895FB01DC01B1
:0E0E200001900D920020E1F70895F894FFCFA5
:100E2E000000E401800000000000C001E0000D01A0
:100E3E000D027E011C0170010D0A004F4B3A204C31
:100E4E004544204F4E004F4B3A204C4544204F46D0
:0A0E5E004600535441545553000060
:00000001FF
